{
    "_format": "hh-sol-artifact-1",
    "contractName": "Dtwitter",
    "sourceName": "contracts/Dtwitter.sol",
    "abi": [
        {
            "inputs": [
                {
                    "internalType": "address",
                    "name": "_wallet",
                    "type": "address"
                }
            ],
            "name": "getUserfromWallet",
            "outputs": [
                {
                    "components": [
                        {
                            "internalType": "address",
                            "name": "wallet",
                            "type": "address"
                        },
                        {
                            "internalType": "string",
                            "name": "name",
                            "type": "string"
                        },
                        {
                            "internalType": "string",
                            "name": "handle",
                            "type": "string"
                        },
                        {
                            "internalType": "string",
                            "name": "bio",
                            "type": "string"
                        },
                        {
                            "internalType": "string",
                            "name": "avatar",
                            "type": "string"
                        }
                    ],
                    "internalType": "struct Dtwitter.User",
                    "name": "",
                    "type": "tuple"
                }
            ],
            "stateMutability": "view",
            "type": "function"
        },
        {
            "inputs": [
                {
                    "internalType": "address",
                    "name": "",
                    "type": "address"
                }
            ],
            "name": "handles",
            "outputs": [
                {
                    "internalType": "string",
                    "name": "",
                    "type": "string"
                }
            ],
            "stateMutability": "view",
            "type": "function"
        },
        {
            "inputs": [
                {
                    "internalType": "string",
                    "name": "_handle",
                    "type": "string"
                },
                {
                    "internalType": "string",
                    "name": "_name",
                    "type": "string"
                },
                {
                    "internalType": "string",
                    "name": "_bio",
                    "type": "string"
                },
                {
                    "internalType": "string",
                    "name": "_avatar",
                    "type": "string"
                }
            ],
            "name": "signUp",
            "outputs": [],
            "stateMutability": "nonpayable",
            "type": "function"
        },
        {
            "inputs": [
                {
                    "internalType": "string",
                    "name": "",
                    "type": "string"
                }
            ],
            "name": "users",
            "outputs": [
                {
                    "internalType": "address",
                    "name": "wallet",
                    "type": "address"
                },
                {
                    "internalType": "string",
                    "name": "name",
                    "type": "string"
                },
                {
                    "internalType": "string",
                    "name": "handle",
                    "type": "string"
                },
                {
                    "internalType": "string",
                    "name": "bio",
                    "type": "string"
                },
                {
                    "internalType": "string",
                    "name": "avatar",
                    "type": "string"
                }
            ],
            "stateMutability": "view",
            "type": "function"
        }
    ],
    "bytecode": "0x608060405234801561001057600080fd5b5061123b806100206000396000f3fe608060405234801561001057600080fd5b506004361061004c5760003560e01c806353b740eb14610051578063589218f114610081578063689e1c031461009d5780638a591c8a146100d1575b600080fd5b61006b60048036038101906100669190610b54565b610101565b6040516100789190610f91565b60405180910390f35b61009b60048036038101906100969190610bbe565b610414565b005b6100b760048036038101906100b29190610b7d565b6106c3565b6040516100c8959493929190610ec0565b60405180910390f35b6100eb60048036038101906100e69190610b54565b61094f565b6040516100f89190610f2f565b60405180910390f35b6101096109ef565b60016000808473ffffffffffffffffffffffffffffffffffffffff1673ffffffffffffffffffffffffffffffffffffffff1681526020019081526020016000206040516101569190610ea9565b90815260200160405180910390206040518060a00160405290816000820160009054906101000a900473ffffffffffffffffffffffffffffffffffffffff1673ffffffffffffffffffffffffffffffffffffffff1673ffffffffffffffffffffffffffffffffffffffff1681526020016001820180546101d5906110ca565b80601f0160208091040260200160405190810160405280929190818152602001828054610201906110ca565b801561024e5780601f106102235761010080835404028352916020019161024e565b820191906000526020600020905b81548152906001019060200180831161023157829003601f168201915b50505050508152602001600282018054610267906110ca565b80601f0160208091040260200160405190810160405280929190818152602001828054610293906110ca565b80156102e05780601f106102b5576101008083540402835291602001916102e0565b820191906000526020600020905b8154815290600101906020018083116102c357829003601f168201915b505050505081526020016003820180546102f9906110ca565b80601f0160208091040260200160405190810160405280929190818152602001828054610325906110ca565b80156103725780601f1061034757610100808354040283529160200191610372565b820191906000526020600020905b81548152906001019060200180831161035557829003601f168201915b5050505050815260200160048201805461038b906110ca565b80601f01602080910402602001604051908101604052809291908181526020018280546103b7906110ca565b80156104045780601f106103d957610100808354040283529160200191610404565b820191906000526020600020905b8154815290600101906020018083116103e757829003601f168201915b5050505050815250509050919050565b60008060003373ffffffffffffffffffffffffffffffffffffffff1673ffffffffffffffffffffffffffffffffffffffff168152602001908152602001600020805461045f906110ca565b9050146104a1576040517f08c379a000000000000000000000000000000000000000000000000000000000815260040161049890610f51565b60405180910390fd5b600073ffffffffffffffffffffffffffffffffffffffff166001856040516104c99190610e92565b908152602001604051809103902060000160009054906101000a900473ffffffffffffffffffffffffffffffffffffffff1673ffffffffffffffffffffffffffffffffffffffff1614610551576040517f08c379a000000000000000000000000000000000000000000000000000000000815260040161054890610f71565b60405180910390fd5b6040518060a001604052803373ffffffffffffffffffffffffffffffffffffffff1681526020018481526020018581526020018381526020018281525060018560405161059e9190610e92565b908152602001604051809103902060008201518160000160006101000a81548173ffffffffffffffffffffffffffffffffffffffff021916908373ffffffffffffffffffffffffffffffffffffffff160217905550602082015181600101908051906020019061060f929190610a34565b50604082015181600201908051906020019061062c929190610a34565b506060820151816003019080519060200190610649929190610a34565b506080820151816004019080519060200190610666929190610a34565b50905050836000803373ffffffffffffffffffffffffffffffffffffffff1673ffffffffffffffffffffffffffffffffffffffff16815260200190815260200160002090805190602001906106bc929190610a34565b5050505050565b6001818051602081018201805184825260208301602085012081835280955050505050506000915090508060000160009054906101000a900473ffffffffffffffffffffffffffffffffffffffff1690806001018054610722906110ca565b80601f016020809104026020016040519081016040528092919081815260200182805461074e906110ca565b801561079b5780601f106107705761010080835404028352916020019161079b565b820191906000526020600020905b81548152906001019060200180831161077e57829003601f168201915b5050505050908060020180546107b0906110ca565b80601f01602080910402602001604051908101604052809291908181526020018280546107dc906110ca565b80156108295780601f106107fe57610100808354040283529160200191610829565b820191906000526020600020905b81548152906001019060200180831161080c57829003601f168201915b50505050509080600301805461083e906110ca565b80601f016020809104026020016040519081016040528092919081815260200182805461086a906110ca565b80156108b75780601f1061088c576101008083540402835291602001916108b7565b820191906000526020600020905b81548152906001019060200180831161089a57829003601f168201915b5050505050908060040180546108cc906110ca565b80601f01602080910402602001604051908101604052809291908181526020018280546108f8906110ca565b80156109455780601f1061091a57610100808354040283529160200191610945565b820191906000526020600020905b81548152906001019060200180831161092857829003601f168201915b5050505050905085565b6000602052806000526040600020600091509050805461096e906110ca565b80601f016020809104026020016040519081016040528092919081815260200182805461099a906110ca565b80156109e75780601f106109bc576101008083540402835291602001916109e7565b820191906000526020600020905b8154815290600101906020018083116109ca57829003601f168201915b505050505081565b6040518060a00160405280600073ffffffffffffffffffffffffffffffffffffffff168152602001606081526020016060815260200160608152602001606081525090565b828054610a40906110ca565b90600052602060002090601f016020900481019282610a625760008555610aa9565b82601f10610a7b57805160ff1916838001178555610aa9565b82800160010185558215610aa9579182015b82811115610aa8578251825591602001919060010190610a8d565b5b509050610ab69190610aba565b5090565b5b80821115610ad3576000816000905550600101610abb565b5090565b6000610aea610ae584610fd8565b610fb3565b905082815260208101848484011115610b0257600080fd5b610b0d848285611088565b509392505050565b600081359050610b24816111ee565b92915050565b600082601f830112610b3b57600080fd5b8135610b4b848260208601610ad7565b91505092915050565b600060208284031215610b6657600080fd5b6000610b7484828501610b15565b91505092915050565b600060208284031215610b8f57600080fd5b600082013567ffffffffffffffff811115610ba957600080fd5b610bb584828501610b2a565b91505092915050565b60008060008060808587031215610bd457600080fd5b600085013567ffffffffffffffff811115610bee57600080fd5b610bfa87828801610b2a565b945050602085013567ffffffffffffffff811115610c1757600080fd5b610c2387828801610b2a565b935050604085013567ffffffffffffffff811115610c4057600080fd5b610c4c87828801610b2a565b925050606085013567ffffffffffffffff811115610c6957600080fd5b610c7587828801610b2a565b91505092959194509250565b610c8a81611056565b82525050565b610c9981611056565b82525050565b6000610caa8261101e565b610cb48185611029565b9350610cc4818560208601611097565b610ccd8161118b565b840191505092915050565b6000610ce38261101e565b610ced818561103a565b9350610cfd818560208601611097565b610d068161118b565b840191505092915050565b6000610d1c8261101e565b610d26818561104b565b9350610d36818560208601611097565b80840191505092915050565b60008154610d4f816110ca565b610d59818661104b565b94506001821660008114610d745760018114610d8557610db8565b60ff19831686528186019350610db8565b610d8e85611009565b60005b83811015610db057815481890152600182019150602081019050610d91565b838801955050505b50505092915050565b6000610dce60148361103a565b9150610dd98261119c565b602082019050919050565b6000610df1601a8361103a565b9150610dfc826111c5565b602082019050919050565b600060a083016000830151610e1f6000860182610c81565b5060208301518482036020860152610e378282610c9f565b91505060408301518482036040860152610e518282610c9f565b91505060608301518482036060860152610e6b8282610c9f565b91505060808301518482036080860152610e858282610c9f565b9150508091505092915050565b6000610e9e8284610d11565b915081905092915050565b6000610eb58284610d42565b915081905092915050565b600060a082019050610ed56000830188610c90565b8181036020830152610ee78187610cd8565b90508181036040830152610efb8186610cd8565b90508181036060830152610f0f8185610cd8565b90508181036080830152610f238184610cd8565b90509695505050505050565b60006020820190508181036000830152610f498184610cd8565b905092915050565b60006020820190508181036000830152610f6a81610dc1565b9050919050565b60006020820190508181036000830152610f8a81610de4565b9050919050565b60006020820190508181036000830152610fab8184610e07565b905092915050565b6000610fbd610fce565b9050610fc982826110fc565b919050565b6000604051905090565b600067ffffffffffffffff821115610ff357610ff261115c565b5b610ffc8261118b565b9050602081019050919050565b60008190508160005260206000209050919050565b600081519050919050565b600082825260208201905092915050565b600082825260208201905092915050565b600081905092915050565b600061106182611068565b9050919050565b600073ffffffffffffffffffffffffffffffffffffffff82169050919050565b82818337600083830152505050565b60005b838110156110b557808201518184015260208101905061109a565b838111156110c4576000848401525b50505050565b600060028204905060018216806110e257607f821691505b602082108114156110f6576110f561112d565b5b50919050565b6111058261118b565b810181811067ffffffffffffffff821117156111245761112361115c565b5b80604052505050565b7f4e487b7100000000000000000000000000000000000000000000000000000000600052602260045260246000fd5b7f4e487b7100000000000000000000000000000000000000000000000000000000600052604160045260246000fd5b6000601f19601f8301169050919050565b7f5573657220616c72656164792065786973747321000000000000000000000000600082015250565b7f557365726e616d6520697320616c72656164792074616b656e21000000000000600082015250565b6111f781611056565b811461120257600080fd5b5056fea26469706673582212200c8092dfe60aceab464a5428fc09dcb73d4b223a11b3b2d671a85755263d323264736f6c63430008040033",
    "linkReferences": {},
    "deployedLinkReferences": {}
}